:040000008A11112828
:10000800FE00030EF6000408F7000A08F800831241
:1000180003137F08F9008A1118288A111328FC0194
:10002800FD0183018A1173288B10FA01FB017B08FB
:10003800803AFF0080307F02031D242805307A02B1
:1000480003186128831203138712071687110710F4
:10005800871407110230F5004530F400A930F30089
:10006800F30B3428F40B3428F50B34283B2883127F
:100078000313871207128711071087100711023020
:10008800F5004530F400A930F300F30B4928F40BD0
:100098004928F50B492850280130FA070318FB0AAC
:1000A8000030FB077B08803AFF0080307F02031D89
:1000B8005F2805307A02031C2628FC01FD018A11FD
:1000C80068218A11790883120313FF0078088A00CF
:1000D80077088400760E8300FE0E7E0E09008312D8
:1000E80003179E01043083160313850086018701D8
:1000F8008B1001170B168B17FC01FD0196288A112E
:100108002E218A1196288A1110218A1196288A117F
:10011800F2208A1196288A11D4208A1196288A11E9
:10012800B6208A117C087D04031983287C037D048A
:100138000319872802307C067D0403198B280330B5
:100148007C067D0403198F2804307C067D0403197E
:10015800932805307C067D04031D96288A114C21BE
:100168008A1196288B138B10831203138716071294
:100178008711071087140711103083120313A20088
:100188003930A1000D30A000A00BC828A10BC82849
:10019800A20BC82800000530FC000030FD00080054
:1001A8008B138B10831203138716071287110710FE
:1001B80087100715333083120313A200BB30A10048
:1001C800DF30A000A00BE628A10BE628A20BE6284A
:1001D80000000430FC000030FD0008008B138B1079
:1001E8008312031387160712871107148710071144
:1001F800063083120313A2001330A100AD30A00013
:10020800A00B0429A10B0429A20B04290000033028
:10021800FC000030FD0008008B138B1083120313C1
:1002280087120716871107148710071110308312D9
:100238000313A2003930A1000D30A000A00B222921
:10024800A10B2229A20B222900000230FC00003059
:10025800FD0008008B178B108312031387120712F7
:100268008715071487100711333083120313A20070
:10027800BB30A100DF30A000A00B4029A10B402912
:10028800A20B402900000130FC000030FD000800EE
:100298008B138B1083120313871607128711071409
:1002A80087100711063083120313A2001330A10030
:1002B800AD30A000A00B5E29A10B5E29A20B5E2920
:1002C8000000FC01FD0108008B178B10831203133B
:1002D8008712071287150714871007113330F200A9
:1002E800BB30F100DF30F000F00B7829F10B7829F2
:1002F800F20B78297F290130FC000030FD0008004E
:02400E00F4F0CC
:00000001FF
